{
  "_format": "hh-sol-artifact-1",
  "contractName": "ReportLogger",
  "sourceName": "contracts/ReportLogger.sol",
  "abi": [
    {
      "anonymous": false,
      "inputs": [
        {
          "indexed": false,
          "internalType": "uint256",
          "name": "id",
          "type": "uint256"
        },
        {
          "indexed": false,
          "internalType": "string",
          "name": "title",
          "type": "string"
        },
        {
          "indexed": false,
          "internalType": "address",
          "name": "user",
          "type": "address"
        }
      ],
      "name": "ReportCreated",
      "type": "event"
    },
    {
      "inputs": [
        {
          "internalType": "string",
          "name": "_title",
          "type": "string"
        },
        {
          "internalType": "string",
          "name": "_description",
          "type": "string"
        },
        {
          "internalType": "string",
          "name": "_coords",
          "type": "string"
        },
        {
          "internalType": "string",
          "name": "_photo",
          "type": "string"
        }
      ],
      "name": "createReport",
      "outputs": [],
      "stateMutability": "nonpayable",
      "type": "function"
    },
    {
      "inputs": [
        {
          "internalType": "uint256",
          "name": "_id",
          "type": "uint256"
        }
      ],
      "name": "getReport",
      "outputs": [
        {
          "internalType": "uint256",
          "name": "id",
          "type": "uint256"
        },
        {
          "internalType": "string",
          "name": "title",
          "type": "string"
        },
        {
          "internalType": "string",
          "name": "description",
          "type": "string"
        },
        {
          "internalType": "string",
          "name": "coords",
          "type": "string"
        },
        {
          "internalType": "string",
          "name": "photo",
          "type": "string"
        },
        {
          "internalType": "uint256",
          "name": "timestamp",
          "type": "uint256"
        },
        {
          "internalType": "address",
          "name": "user",
          "type": "address"
        }
      ],
      "stateMutability": "view",
      "type": "function"
    },
    {
      "inputs": [],
      "name": "getReportCount",
      "outputs": [
        {
          "internalType": "uint256",
          "name": "",
          "type": "uint256"
        }
      ],
      "stateMutability": "view",
      "type": "function"
    },
    {
      "inputs": [
        {
          "internalType": "uint256",
          "name": "",
          "type": "uint256"
        }
      ],
      "name": "reports",
      "outputs": [
        {
          "internalType": "uint256",
          "name": "id",
          "type": "uint256"
        },
        {
          "internalType": "string",
          "name": "title",
          "type": "string"
        },
        {
          "internalType": "string",
          "name": "description",
          "type": "string"
        },
        {
          "internalType": "string",
          "name": "coords",
          "type": "string"
        },
        {
          "internalType": "string",
          "name": "photo",
          "type": "string"
        },
        {
          "internalType": "uint256",
          "name": "timestamp",
          "type": "uint256"
        },
        {
          "internalType": "address",
          "name": "user",
          "type": "address"
        }
      ],
      "stateMutability": "view",
      "type": "function"
    }
  ],
  "bytecode": "0x6080604052348015600f57600080fd5b50610fbb8061001f6000396000f3fe608060405234801561001057600080fd5b506004361061004c5760003560e01c80634e7f9b1914610051578063c942adf714610087578063cad9642b146100bd578063d10d600b146100db575b600080fd5b61006b60048036038101906100669190610818565b6100f7565b60405161007e9796959493929190610925565b60405180910390f35b6100a1600480360381019061009c9190610818565b6103b0565b6040516100b49796959493929190610925565b60405180910390f35b6100c5610642565b6040516100d291906109b0565b60405180910390f35b6100f560048036038101906100f09190610b00565b61064e565b005b6000606080606080600080600080898154811061011757610116610bd7565b5b9060005260206000209060070201905080600001548160010182600201836003018460040185600501548660060160009054906101000a900473ffffffffffffffffffffffffffffffffffffffff1685805461017290610c35565b80601f016020809104026020016040519081016040528092919081815260200182805461019e90610c35565b80156101eb5780601f106101c0576101008083540402835291602001916101eb565b820191906000526020600020905b8154815290600101906020018083116101ce57829003601f168201915b505050505095508480546101fe90610c35565b80601f016020809104026020016040519081016040528092919081815260200182805461022a90610c35565b80156102775780601f1061024c57610100808354040283529160200191610277565b820191906000526020600020905b81548152906001019060200180831161025a57829003601f168201915b5050505050945083805461028a90610c35565b80601f01602080910402602001604051908101604052809291908181526020018280546102b690610c35565b80156103035780601f106102d857610100808354040283529160200191610303565b820191906000526020600020905b8154815290600101906020018083116102e657829003601f168201915b5050505050935082805461031690610c35565b80601f016020809104026020016040519081016040528092919081815260200182805461034290610c35565b801561038f5780601f106103645761010080835404028352916020019161038f565b820191906000526020600020905b81548152906001019060200180831161037257829003601f168201915b50505050509250975097509750975097509750975050919395979092949650565b600081815481106103c057600080fd5b90600052602060002090600702016000915090508060000154908060010180546103e990610c35565b80601f016020809104026020016040519081016040528092919081815260200182805461041590610c35565b80156104625780601f1061043757610100808354040283529160200191610462565b820191906000526020600020905b81548152906001019060200180831161044557829003601f168201915b50505050509080600201805461047790610c35565b80601f01602080910402602001604051908101604052809291908181526020018280546104a390610c35565b80156104f05780601f106104c5576101008083540402835291602001916104f0565b820191906000526020600020905b8154815290600101906020018083116104d357829003601f168201915b50505050509080600301805461050590610c35565b80601f016020809104026020016040519081016040528092919081815260200182805461053190610c35565b801561057e5780601f106105535761010080835404028352916020019161057e565b820191906000526020600020905b81548152906001019060200180831161056157829003601f168201915b50505050509080600401805461059390610c35565b80601f01602080910402602001604051908101604052809291908181526020018280546105bf90610c35565b801561060c5780601f106105e15761010080835404028352916020019161060c565b820191906000526020600020905b8154815290600101906020018083116105ef57829003601f168201915b5050505050908060050154908060060160009054906101000a900473ffffffffffffffffffffffffffffffffffffffff16905087565b60008080549050905090565b60006040518060e0016040528060008054905081526020018681526020018581526020018481526020018381526020014281526020013373ffffffffffffffffffffffffffffffffffffffff1681525090806001815401808255809150506001900390600052602060002090600702016000909190919091506000820151816000015560208201518160010190816106e69190610e12565b5060408201518160020190816106fc9190610e12565b5060608201518160030190816107129190610e12565b5060808201518160040190816107289190610e12565b5060a0820151816005015560c08201518160060160006101000a81548173ffffffffffffffffffffffffffffffffffffffff021916908373ffffffffffffffffffffffffffffffffffffffff16021790555050507f975295d08289453202cfebd8cdc41d997d1e7d0b9538ebfefa9c7f543989f02b60016000805490506107af9190610f13565b85336040516107c093929190610f47565b60405180910390a150505050565b6000604051905090565b600080fd5b600080fd5b6000819050919050565b6107f5816107e2565b811461080057600080fd5b50565b600081359050610812816107ec565b92915050565b60006020828403121561082e5761082d6107d8565b5b600061083c84828501610803565b91505092915050565b61084e816107e2565b82525050565b600081519050919050565b600082825260208201905092915050565b60005b8381101561088e578082015181840152602081019050610873565b60008484015250505050565b6000601f19601f8301169050919050565b60006108b682610854565b6108c0818561085f565b93506108d0818560208601610870565b6108d98161089a565b840191505092915050565b600073ffffffffffffffffffffffffffffffffffffffff82169050919050565b600061090f826108e4565b9050919050565b61091f81610904565b82525050565b600060e08201905061093a600083018a610845565b818103602083015261094c81896108ab565b9050818103604083015261096081886108ab565b9050818103606083015261097481876108ab565b9050818103608083015261098881866108ab565b905061099760a0830185610845565b6109a460c0830184610916565b98975050505050505050565b60006020820190506109c56000830184610845565b92915050565b600080fd5b600080fd5b7f4e487b7100000000000000000000000000000000000000000000000000000000600052604160045260246000fd5b610a0d8261089a565b810181811067ffffffffffffffff82111715610a2c57610a2b6109d5565b5b80604052505050565b6000610a3f6107ce565b9050610a4b8282610a04565b919050565b600067ffffffffffffffff821115610a6b57610a6a6109d5565b5b610a748261089a565b9050602081019050919050565b82818337600083830152505050565b6000610aa3610a9e84610a50565b610a35565b905082815260208101848484011115610abf57610abe6109d0565b5b610aca848285610a81565b509392505050565b600082601f830112610ae757610ae66109cb565b5b8135610af7848260208601610a90565b91505092915050565b60008060008060808587031215610b1a57610b196107d8565b5b600085013567ffffffffffffffff811115610b3857610b376107dd565b5b610b4487828801610ad2565b945050602085013567ffffffffffffffff811115610b6557610b646107dd565b5b610b7187828801610ad2565b935050604085013567ffffffffffffffff811115610b9257610b916107dd565b5b610b9e87828801610ad2565b925050606085013567ffffffffffffffff811115610bbf57610bbe6107dd565b5b610bcb87828801610ad2565b91505092959194509250565b7f4e487b7100000000000000000000000000000000000000000000000000000000600052603260045260246000fd5b7f4e487b7100000000000000000000000000000000000000000000000000000000600052602260045260246000fd5b60006002820490506001821680610c4d57607f821691505b602082108103610c6057610c5f610c06565b5b50919050565b60008190508160005260206000209050919050565b60006020601f8301049050919050565b600082821b905092915050565b600060088302610cc87fffffffffffffffffffffffffffffffffffffffffffffffffffffffffffffffff82610c8b565b610cd28683610c8b565b95508019841693508086168417925050509392505050565b6000819050919050565b6000610d0f610d0a610d05846107e2565b610cea565b6107e2565b9050919050565b6000819050919050565b610d2983610cf4565b610d3d610d3582610d16565b848454610c98565b825550505050565b600090565b610d52610d45565b610d5d818484610d20565b505050565b5b81811015610d8157610d76600082610d4a565b600181019050610d63565b5050565b601f821115610dc657610d9781610c66565b610da084610c7b565b81016020851015610daf578190505b610dc3610dbb85610c7b565b830182610d62565b50505b505050565b600082821c905092915050565b6000610de960001984600802610dcb565b1980831691505092915050565b6000610e028383610dd8565b9150826002028217905092915050565b610e1b82610854565b67ffffffffffffffff811115610e3457610e336109d5565b5b610e3e8254610c35565b610e49828285610d85565b600060209050601f831160018114610e7c5760008415610e6a578287015190505b610e748582610df6565b865550610edc565b601f198416610e8a86610c66565b60005b82811015610eb257848901518255600182019150602085019450602081019050610e8d565b86831015610ecf5784890151610ecb601f891682610dd8565b8355505b6001600288020188555050505b505050505050565b7f4e487b7100000000000000000000000000000000000000000000000000000000600052601160045260246000fd5b6000610f1e826107e2565b9150610f29836107e2565b9250828203905081811115610f4157610f40610ee4565b5b92915050565b6000606082019050610f5c6000830186610845565b8181036020830152610f6e81856108ab565b9050610f7d6040830184610916565b94935050505056fea2646970667358221220b7e750af4b96b735ab4e74c0ddd5f61f5d2dc564e0a7799f87c4d56576198f6464736f6c634300081c0033",
  "linkReferences": {},
  "deployedLinkReferences": {}
}